:100000000C943F000C94AC000C9469000C946700B5
:100010000C9467000C9467000C9467000C946700C4
:100020000C9467000C9467000C9467000C946700B4
:100030000C9467000C9467000C9467000C946700A4
:100040000C9467000C9467000C9467000C94670094
:100050000C9467000C9467000C9467000C94670084
:100060000C9467000C9467000C9467000C94670074
:100070000C9467000C9467000C946700D00A11245C
:100080001FBECFEFD8E0DEBFCDBF11E0A0E0B1E0F2
:10009000ECEAF9E102C005900D92AA3CB107D9F74C
:1000A00021E0AAECB1E001C01D92AF3DB207E1F73B
:1000B00010E0CFE3D0E004C02197FE010E94F00AD7
:1000C000CE33D107C9F70E94840A0C94C20C0C9459
:1000D00000001F920F920FB60F9211242F933F939F
:1000E0004F935F936F937F938F939F93AF93BF9340
:1000F000EF93FF938FE59AEE0197F1F700C00000B0
:1001000081ED91E00E94CC06811114C08FE19EE444
:100110000197F1F700C0000081ED91E00E94CC064C
:10012000811108C08091CB018F5F8093CB0181E06A
:1001300080930001E19AFF91EF91BF91AF919F9160
:100140008F917F916F915F914F913F912F910F9080
:100150000FBE0F901F9018951F920F920FB60F921F
:1001600011242F933F934F935F936F937F938F93BC
:100170009F93AF93BF93EF93FF938FE59AEE019711
:10018000F1F700C000008CEC91E00E94CC068823BF
:1001900079F08FE19EE40197F1F700C000008CEC4C
:1001A00091E00E94CC06882319F081E08093CA0177
:1001B000E09AFF91EF91BF91AF919F918F917F91C5
:1001C0006F915F914F913F912F910F900FBE0F90C4
:1001D0001F901895FC018081813039F026E642E0BD
:1001E00061E0CF0102960C94910608950F931F933E
:1001F000CF93DF93EC0102960E94D204CE010D96BC
:100200000E94E4038E010D5E1F4FC8010E94A703E8
:1002100019821F8A66E971E0C801DF91CF911F91B1
:100220000F910C94C203FC01608361830895FC016B
:100230002181223089F048F4439661EA71E021116E
:1002400002C066E971E00C94C203233049F066EC09
:1002500071E0243019F0089568EA71E04396F3CF15
:1002600069EB71E0FBCF80ED97E00C942A03FC0171
:100270008181823089F048F49081811109C081E048
:10028000913009F484E081830895833051F008951A
:1002900082E09230C1F7F6CF8081833099F383E01A
:1002A000F2CF8081882371F311820895FC0161836C
:1002B0000895FC0187890895CF93DF93EC0122967E
:1002C000CE010E940B05CE010E94B80526E647E04C
:1002D00061E0CE010E949106CE010E9444066CE2CC
:1002E00071E0CE010E946205CE01DF91CF910C94A6
:1002F000E504CF93DF93EC012296CE010E940B051B
:10030000CE010E948C05CE010E94D10588EC90E0C0
:100310000E942A03CE010E94A50526E642E060E085
:10032000CE010E9491066CE271E0CE010E9462054E
:10033000CE01DF91CF910C94E504CF93DF93EC01D4
:100340002296CE010E940B056CED75E0CE010E9455
:100350001E056CE271E0CE010E9443056CE271E083
:10036000CE010E94430564EF71E0CE010E94430577
:1003700026E641E061E0CE010E94910626E642E0D9
:1003800061E0CE010E94910660ED77E0CE010E940F
:100390001E0564EF71E0CE010E94620526E642E090
:1003A00061E0CE010E94910660ED77E0CE010E94EF
:1003B0001E0564EF71E0CE010E94620526E642E070
:1003C00061E0CE010E94910660ED77E0CE010E94CF
:1003D0001E0564EF71E0CE010E94620526E642E050
:1003E00061E0CE010E94910660ED77E0CE010E94AF
:1003F0001E056CE271E0CE010E94620526E641E036
:1004000061E0CE010E94910626E647E061E0CE0160
:100410000E94910660ED77E0CE010E941E056CE21D
:1004200071E0CE010E94620526E647E061E0CE0160
:100430000E94910660ED77E0CE010E941E0564EFF8
:1004400071E0CE010E94620526E642E061E0CE0145
:100450000E94910660ED77E0CE010E941E0564EFD8
:1004600071E0CE010E94620526E642E061E0CE0125
:100470000E94910660ED77E0CE010E941E056CE2BD
:1004800071E0CE010E9443056CE271E0CE010E9452
:1004900043056CE271E0CE010E946205CE01DF915E
:1004A000CF910C94E504CF93DF93EC012296CE011B
:1004B0000E940B05CE010E948C0581E50E94460337
:1004C0002BE542E060E0CE010E9491062FE788E331
:1004D00091E0215080409040E1F700C000000E9470
:1004E000A503CE010E948C058DE20E9446032BE5F8
:1004F00042E061E0CE010E9491062FE788E391E09F
:10050000215080409040E1F700C000000E94A50308
:10051000CE010E948C0581E50E9446032BE542E056
:1005200060E0CE010E9491062FE788E391E0215020
:1005300080409040E1F700C000000E94A503CE017A
:100540000E948C058DE20E9446032BE542E061E0AB
:10055000CE010E9491062FE788E391E02150804070
:100560009040E1F700C000000E94A50360ED77E035
:10057000CE010E941E056CE271E0CE010E9443058F
:10058000CE01DF91CF910C94E504FC0181E0878BD3
:1005900026E642E061E0CF0102960C949106CF93EB
:1005A000DF93EC016230C1F030F4611109C0DF91DA
:1005B000CF910C94EA006330C9F0DF91CF91089598
:1005C00088818230D1F326E642E061E0CE010296D6
:1005D000DF91CF910C9491068881833039F026E623
:1005E00042E061E0CE0102960E9491068881882354
:1005F00021F3E9CFCF93DF93EC0189818230D9F0E9
:1006000050F481110FC0CE010E945C01CE01DF9138
:10061000CF910C94EA00833099F08430B1F0DF91EF
:10062000CF910895CE010E94790161E0CE01DF9162
:10063000CF910C94CF02CE010E949D0162E0F6CFD3
:10064000CE010E94530263E0F1CFCE01DF91CF9142
:100650000C94C5029C0190E080E08217930741F062
:10066000EFECF7E03197F1F700C000000196F5CF0D
:1006700008959C0190E080E08217930731F042E0FA
:100680004A95F1F700C00196F7CF0895CF93DF9315
:1006900000D000D0CDB7DEB7E82F83ED8E0F8532C6
:1006A000E0F5ED52FF0BEE0FFF1FEE0FFF1FEE5FA9
:1006B000FE4F20E030E040E054E4608171818281AF
:1006C00093810E94550C9B01AC0160E074E284EFC1
:1006D0009AE40E94630B20E030E040E85FE3698326
:1006E0007A838B839C8369817A818B819C810E9430
:1006F000F60A69837A838B839C8369817A818B81F3
:100700009C810E94D50B862F62E00F900F900F9076
:100710000F90DF91CF910C946B070F900F900F907B
:100720000F90DF91CF9108951F93CF93DF93D82F30
:10073000142FC0E0C11729F08D2F0E944603CF5F10
:10074000F9CFDF91CF911F9108950C947E07FC01A2
:1007500088E290E09183808387E290E093838283B4
:1007600068E270E00C942F08FC01CB01BA014083D1
:100770007183828393830C942F08FC018081918183
:100780000C94DC07EF92FF920F931F93CF93DF93AC
:100790008C01EB010E94BD03FE0101900020E9F7EE
:1007A000CF0101977C01CE15DF0539F0F80160819A
:1007B000718189910E942908F6CFDF91CF911F9115
:1007C0000F91FF90EF900895FC0181E084831582E2
:1007D00084B1836084B984E290E09383828385E26C
:1007E00090E0918380830895FC01DA0181E08483A5
:1007F000158271836083538342838C9183608C93D1
:100800000895FC016130F9F0623091F1611146C048
:10081000A081B1814C91848121E030E0B90102C016
:10082000660F771F8A95E2F7CB01809584238C931E
:10083000A081B1818C91958101C0220F9A95EAF730
:10084000282B2C930895A081B1814C91858121E0C2
:1008500030E0B90102C0660F771F8A95E2F7CB013D
:10086000809584238C93A081B1818C919481E4CF75
:10087000A081B1814C91858121E030E0B90102C0B5
:10088000660F771F8A95E2F7CB01948101C0220F92
:100890009A95EAF7822B809584238C9308950F9381
:1008A0001F93CF93DF93EC01CA016130D9F162301D
:1008B00009F44DC0611131C0E881F98140812C817A
:1008C00001E010E0B80102C0660F771F2A95E2F739
:1008D0009B01209524232083E881F98120813D819B
:1008E000A80101C0440F3A95EAF7242B20830E9407
:1008F0002A03E881F98120818D81D80102C0AA0FE5
:10090000BB1F8A95E2F7CD019C8101C0000F9A952B
:10091000EAF7802B809582238083DF91CF911F910E
:100920000F910895E881F98140812D8101E010E067
:10093000B80102C0660F771F2A95E2F79B01209548
:1009400024232083E881F98120813C81C9CFE8817B
:10095000F98160812D8141E050E0DA0102C0AA0FE7
:10096000BB1F2A95E2F79D013C8101C0440F3A95D7
:10097000EAF7242B209526232083DF91CF911F9126
:100980000F910C942A031092890010928800109203
:100990008B0010928A0010928000109281001092B9
:1009A00082000895CF93DF93EC010E948A08CE0164
:1009B00001960E94AE06CE0105960E94E4038AB11C
:1009C000806F8AB9DF91CF910895109289001092BB
:1009D000880010928B0010928A0010928000109272
:1009E000810010928200089550E050938900409356
:1009F000880070E070938B0060938A00E0E8F0E07C
:100A00008081816A8083E1E8F0E080818260808378
:100A100010928200089542EB62EB0E94F4048EE192
:100A200090E00E942A030C94C3049C019BB19F7325
:100A30009BB946E666E6C9010C94F404EF92FF9276
:100A40000F931F93CF93DF93D82FC92F7B010E9461
:100A5000150510E000E00E151F0569F046E666E694
:100A60008D2F9C2F0E941F0A81E090E00E942A0394
:100A70000F5F1F4FF0CFDF91CF911F910F91FF902C
:100A8000EF900C94C3040F931F93CF93DF93D82F51
:100A9000C92F8B010E94150546E666E68D2F9C2F17
:100AA0000E941F0A64E08D2F9C2F0E947A098823E0
:100AB00099F3C8010E942A03DF91CF911F910F91F2
:100AC0000C94C3040F931F93CF93DF93D82FC92F98
:100AD0008B010E94150546E666E68D2F9C2F0E942D
:100AE0001F0A42E350E064E08D2F9C2F0E94C20950
:100AF000811109C048EC50E061E08D2F9C2F0E94CD
:100B0000C209882341F3C8010E942A03DF91CF91D3
:100B10001F910F910C94C304CF93DF93D82FC92F4B
:100B20000E94150546E666E68D2F9C2F0E941F0A3F
:100B300048EC50E061E08D2F9C2F0E94C209882371
:100B400089F3DF91CF910C94C304CF93DF93D82F17
:100B5000C92F0E94150548EC50E061E08D2F9C2FB5
:100B60000E94C2098823B9F3DF91CF910C94C3048A
:100B7000CF93DF93D82FC92F0E94150546E666E66E
:100B80008D2F9C2F0E941F0A48EC50E063E08D2FB0
:100B90009C2F0E94C209882389F3DF91CF910C9486
:100BA000C3047F928F929F92AF92BF92CF92DF92B7
:100BB000EF92FF920F931F93CF93DF93EC010E946C
:100BC00015057E012FEFE21AF20A8E010B5F1F4F0F
:100BD00086E6882E912C92E5C92ED12C2AE7A22EEA
:100BE000B12CC7010E94C406C7010E94B0068981CA
:100BF0009A81813A23E0920750F161E0C8010E9496
:100C00000104B0928900A0928800D0928B00C0921B
:100C10008A0062E0CE010E947A09782E8CE390E08F
:100C20000E942A037720E9F262E0C8010E940104D1
:100C3000DF91CF911F910F91FF90EF90DF90CF90B8
:100C4000BF90AF909F908F907F900C94C3048C3294
:100C5000934068F461E0C8010E940104D0928900C9
:100C6000C0928800B0928B00A0928A00D2CF60E040
:100C7000C8010E940104909289008092880090929D
:100C80008B0080928A00C5CFCF93DF93D82FC92FD6
:100C90000E94150546E666E68D2F9C2F0E948E0861
:100CA0008823C1F3DF91CF910C94C3049C019BB1C5
:100CB000906C9BB946E666E6C9010C94F4041F9358
:100CC000CF93DF93D82FC92F162F5E985F9A49E9EB
:100CD00069E90E94F40485E090E00E942A03412F14
:100CE000612F8D2F9C2FDF91CF911F910C94F404D5
:100CF0001F93CF93DF93D82FC92F162F5E9A5F983B
:100D000049E969E90E94F40485E090E00E942A0321
:100D1000412F612F8D2F9C2FDF91CF911F910C942C
:100D2000F4041F93CF93DF93D82FC92F862F142F4E
:100D3000622F81110FC08D2F0E945F06612F8D2FB2
:100D40009C2F0E947A098823C9F3DF91CF911F91CC
:100D50000C94C3048D2F0E947806F0CF089A089552
:100D6000FC01019BFECF90E080E0019B04C000C02D
:100D700000C00196FACF918380836AE370E00E94FD
:100D8000DC0A738362830895F894109A88E28A9546
:100D9000F1F7109878940895FC01A381B4818C91A7
:100DA000228190E002C0959587952A95E2F781709F
:100DB0000895FC016130E1F0623091F1611147C0AA
:100DC00082E0828389E290E09483838332812AB136
:100DD00081E090E002C0880F991F3A95E2F7809574
:100DE000909582238AB9118281E08083E89A0895E0
:100DF00033E0328389E290E09483838342812AB195
:100E000081E090E002C0880F991F4A95E2F7809533
:100E1000909582238AB982E081833083E99A08958C
:100E2000628383E290E094838383328124B181E002
:100E300090E002C0880F991F3A95E2F7809590954F
:100E4000822384B984E0818385E08083EA9A0895CF
:100E5000FC016230B1F028F4611115C010926900F4
:100E60000895633009F0089591818091690021E02F
:100E700030E001C0220F9A95EAF7822B8093690037
:100E800008959081F2CF31812091690081E090E056
:100E9000AC0101C0440F3A95EAF7242B2093690076
:100EA00030812091690001C0880F3A95EAF7E5CFBB
:100EB0001F93CF93DF93D82FC92F142FF8940E943C
:100EC000D906612F8D2F9C2F0E9428077894DF91DF
:100ED000CF911F91089594B121E030E001C0220F1D
:100EE0006A95EAF7922B986094B916BC87BD84B5D1
:100EF000826484BD85B5846085BD089514BC15BC2D
:100F000017BC08951092B000E1EBF0E0808187609B
:100F100080831092B20008951092B0001092B10038
:100F2000109270000895FC0180818062808384E0CB
:100F30008A95F1F780818F7D80830895DF92EF920B
:100F4000FF920F931F93CF93DF93D42EE901062FC7
:100F500010E090E8899F7001112488818172888354
:100F60008881980194E0359527959A95E1F7220FAD
:100F7000331F2E29282B2883CE010E9493078881B6
:100F8000817288838881000F111F0E710E29082B32
:100F90000883CE010E94930780E09AE19A95F1F7C9
:100FA00000C08F5FD812F9CFDF91CF911F910F91C1
:100FB000FF90EF90DF9008959C0144EA61E080E0AB
:100FC0000C949E079C0144EA62E080E00C949E072A
:100FD0009A01880F682B646044E080E00C949E07BF
:100FE00054E0859FC0011124482B660F642B686074
:100FF00044E080E00C949E079A0148E0849FC00181
:10100000112444E0649FB0011124682B606144E026
:1010100080E00C949E079A0140E1849FC001112456
:1010200048E0649FB0011124682B606244E080E0D6
:101030000C949E079B018F77682F606444E080E0EA
:101040000C949E079B01682F606844E080E00C943C
:101050009E079B0144E0682F81E00C949E07CF938C
:10106000DF93FC01EB018FE295E70197F1F700C0F8
:10107000000080818172808380818FEF80838881EE
:101080008172888388818660888388818E7F888347
:10109000CB010E94930787E090E20197F1F700C02F
:1010A0000000CE010E94930787EC90E00197F1F7D2
:1010B00000C00000CE010E9493079AE69A95F1F7CE
:1010C00000C0888181728883888184608883CE0192
:1010D0000E9493078AE68A95F1F700C09E0144E0DA
:1010E0006CE280E00E949E079E0140E060E080E0AC
:1010F0000E94F007CE010E94DC07AE0160E081E0B3
:101100000E94E8079E0140E060E081E0DF91CF911E
:101110000C94F00781B1837881B908950F931F93E0
:10112000029B04C08091D601811135C0069946C04A
:10113000049940C08091DB019091DC01A091DD0118
:10114000B091DE010196A11DB11D8093DB0190934A
:10115000DC01A093DD01B093DE01029B74C02091FD
:101160000101222309F46FC00091D7011091D80129
:101170002091D9013091DA0152E0369527951795E3
:1011800007955A95D1F7081719072A073B0758F111
:10119000049910C0FDCF50E0475E5F4F5093890027
:1011A000409388006951770B70938B0060938A009D
:1011B000049BFECF81E01F910F9108958091010162
:1011C000882309F4B5CF4951550B509389004093BA
:1011D000880070E0675E7F4F70938B0060938A0099
:1011E0000499E8CFFDCF5E985F9A242F2951330BE5
:1011F0003093890020938800862F90E04E9690933C
:101200008B0080938A000299FECF5F9810920101B3
:1012100081E08093D6018091DB019091DC01A09167
:10122000DD01B091DE018093D7019093D801A093A6
:10123000D901B093DA011092DB011092DC01109217
:10124000DD011092DE01069B53C08091D6018823F8
:1012500009F4B1CF8091D7019091D801A091D90123
:10126000B091DA0122E0B695A795979587952A95D2
:10127000D1F70091DB011091DC012091DD0130916B
:10128000DE0180179107A207B30718F0049992CFE7
:10129000FDCF5E9A5F9850E04D5D5F4F509389009F
:1012A000409388006951770B70938B0060938A009C
:1012B0000699FECF5E9881E0809301011092D601DD
:1012C0008091DB019091DC01A091DD01B091DE0104
:1012D0008093D7019093D801A093D901B093DA01FC
:1012E0001092DB011092DC011092DD011092DE0100
:1012F00080E061CF6930A8F5E62FF0E0EC53F34FC2
:101300000C94F00A06993CC005993AC0049938C07B
:10131000039936C080B182FB882780F90895069929
:1013200020C005991EC004991CC003991AC080B141
:1013300082FB882780F991E089270895039911C0DD
:1013400004990FC080B185FB882780F9F4CF029BF8
:1013500004C0039B02C0049913C0069B02C00599F8
:1013600006C080E00895029BFCCF039BFACF80B1BA
:1013700082958170089580B186FB882780F9089551
:1013800081E00895FF920F931F93CF93DF93D82F9F
:10139000C92F162FF42E052F0E947A09882371F089
:1013A0008F2D902F0E942A03612F8D2F9C2FDF916C
:1013B000CF911F910F91FF900C947A0980E0DF91FB
:1013C000CF911F910F91FF90089590B1892F887050
:1013D00093FD02C092FD32C0292F207496FF02C0F7
:1013E00095FF1EC0392F3C703C30E1F0392F30762C
:1013F0003036D1F0392F38713831C1F0392F307390
:101400003033B1F0882311F092FF14C0211102C0D3
:1014100095FD12C0947484E0943481F489E00895B9
:1014200088E0089581E0089587E0089583E00895B5
:1014300085E0089582E0089586E008950895CF93A9
:10144000DF93D62FC42F0E94E5098930B0F4E82F2E
:10145000F0E0E353F34F4C2F50E06D2F70E00C940D
:10146000F00A4F5D5F4F50938900409388006152AE
:10147000710970938B0060938A00DF91CF9108957A
:10148000425E5F4F50938900409388006E5171090E
:10149000F0CF475E5F4F50938900409388006951B9
:1014A0007109E7CF4C5E5F4F5093890040938800ED
:1014B00064517109DECF5093890040938800D9CFE1
:1014C0004451510950938900409388006C5E7F4FCE
:1014D000D0CF495151095093890040938800675EED
:1014E0007F4FC7CF4E5151095093890040938800D8
:1014F000625E7F4FBECF41525109509389004093A5
:1015000088006F5D7F4FB5CFCDB7DEB769970FB657
:10151000F894DEBF0FBECDBFCE0101960E94F6004B
:101520008091CA0181111CC0809100018823C1F300
:101530008091CB01837062E0823039F063E08330C8
:1015400021F060E0813009F461E0CE0101960E9453
:101550001301CE0101960E94170110920001E0CF05
:10156000CE0101960E943301CE0101960E945901DD
:1015700081110DC0CE0101960E94FA02CE010196A2
:101580000E943701CE0101960E941701EDCF90E035
:1015900080E069960FB6F894DEBF0FBECDBF089508
:1015A00042E061E081ED91E00E94580741E060E097
:1015B0008CEC91E00C945807AA1BBB1B51E107C0AF
:1015C000AA1FBB1FA617B70710F0A61BB70B881FD3
:1015D000991F5A95A9F780959095BC01CD01089562
:1015E000EE0FFF1F0590F491E02D09945058BB2792
:1015F000AA270E940E0B0C941B0C0E940D0C38F0B5
:101600000E94140C20F039F49F3F19F426F40C9436
:101610000A0C0EF4E095E7FB0C94040CE92F0E94F1
:101620002C0C58F3BA17620773078407950720F04C
:1016300079F4A6F50C944E0C0EF4E0950B2EBA2F0F
:10164000A02D0B01B90190010C01CA01A0011124C8
:10165000FF27591B99F0593F50F4503E68F11A1674
:10166000F040A22F232F342F4427585FF3CF469505
:1016700037952795A795F0405395C9F77EF41F1627
:10168000BA0B620B730B840BBAF09150A1F0FF0FF1
:10169000BB1F661F771F881FC2F70EC0BA0F621FDD
:1016A000731F841F48F4879577956795B795F795CD
:1016B0009E3F08F0B0CF9395880F08F09927EE0F62
:1016C0009795879508950E94770B0C941B0C0E94A8
:1016D000140C58F00E940D0C40F029F45F3F29F0E3
:1016E0000C94040C51110C944F0C0C940A0C0E9495
:1016F0002C0C68F39923B1F3552391F3951B550BEB
:10170000BB27AA2762177307840738F09F5F5F4FD4
:10171000220F331F441FAA1FA9F335D00E2E3AF013
:10172000E0E832D091505040E695001CCAF72BD02B
:10173000FE2F29D0660F771F881FBB1F261737077C
:101740004807AB07B0E809F0BB0B802DBF01FF27AE
:1017500093585F4F3AF09E3F510578F00C94040C7B
:101760000C944F0C5F3FE4F3983ED4F38695779545
:101770006795B795F7959F5FC9F7880F911D969567
:10178000879597F90895E1E0660F771F881FBB1FC3
:10179000621773078407BA0720F0621B730B840B70
:1017A000BA0BEE1F88F7E09508950E94340C88F07C
:1017B0009F5798F0B92F9927B751B0F0E1F0660F15
:1017C000771F881F991F1AF0BA95C9F714C0B13056
:1017D00091F00E944E0CB1E008950C944E0C672FCE
:1017E000782F8827B85F39F0B93FCCF38695779585
:1017F0006795B395D9F73EF490958095709561956E
:101800007F4F8F4F9F4F089597F99F6780E870E053
:1018100060E008959FEF80EC089500240A94161666
:10182000170618060906089500240A9412161306CE
:10183000140605060895092E0394000C11F488235C
:1018400052F0BB0F40F4BF2B11F460FF04C06F5F78
:101850007F4F8F4F9F4F089557FD9058440F551F4E
:1018600059F05F3F71F04795880F97FB991F61F022
:101870009F3F79F087950895121613061406551F99
:10188000F2CF4695F1DF08C0161617061806991F05
:10189000F1CF86957105610508940895E894BB27FA
:1018A00066277727CB0197F908950E94680C0C945E
:1018B0001B0C0E940D0C38F00E94140C20F0952394
:1018C00011F00C94040C0C940A0C11240C944F0C81
:1018D0000E942C0C70F3959FC1F3950F50E0551F9B
:1018E000629FF001729FBB27F00DB11D639FAA2775
:1018F000F00DB11DAA1F649F6627B00DA11D661FC4
:10190000829F2227B00DA11D621F739FB00DA11DE4
:10191000621F839FA00D611D221F749F3327A00D9E
:10192000611D231F849F600D211D822F762F6A2F3A
:1019300011249F5750409AF0F1F088234AF0EE0F9F
:10194000FF1FBB1F661F771F881F91505040A9F7CC
:101950009E3F510580F00C94040C0C944F0C5F3F9B
:10196000E4F3983ED4F3869577956795B795F79508
:10197000E7959F5FC1F7FE2B880F911D9695879580
:1019800097F90895F894FFCF82098F09B7099E0946
:10199000A709B309AD098A09BB09310A400A490AF6
:0C19A000520A5B0A600A690A720A7B0A9C
:1019AC0001010000DC42F614E94210F1F64213D0BA
:1019BC00024360970A4317D5124341901B4354D0FE
:1019CC002443379D2E4349FF38436AFF434300A706
:1019DC004F4300005C43F614694310F1764313D077
:1019EC00824360978A4317D5924341909B4354D0CE
:1019FC00A443379DAE4349FFB8436AFFC34300A7D6
:101A0C00CF430000DC43F614E94310F1F64313D046
:101A1C00024460970A4417D5124441901B4454D099
:101A2C002444379D2E4449FF38446AFF434400A7A1
:101A3C004F4400005C444C4520434F554C4F495299
:101A4C00004C45204D5552004C45532044455558AB
:101A5C0020424F55434C4553004C455320434F5562
:0A1A6C0050555245530046494E0004
:00000001FF
