:100000000C943E000C9448000C9448000C9448005A
:100010000C9448000C9448000C9448000C94480040
:100020000C9448000C9448000C9448000C94480030
:100030000C9448000C9448000C9448000C94480020
:100040000C9448000C9448000C9448000C94480010
:100050000C9448000C9448000C9448000C94480000
:100060000C9448000C9448000C9448000C944800F0
:100070000C9448000C9448000C94480011241FBEB6
:10008000CFEFD8E0DEBFCDBF0E94ED000C9444035B
:100090000C94000021E02BB930E020E0281739074C
:1000A0003CF442E04A95F1F700C02F5F3F4FF6CF96
:1000B0001BB808958F929F92AF92BF92CF92DF921A
:1000C000EF92FF92BC01990F880B990B0E942202BC
:1000D0009B01AC0160E070E080E89FE30E94780142
:1000E0004B015C01C12CD12C80E8E82E8FE3F82E67
:1000F00020E030E04AE754E4C701B6010E94B302B1
:100100000E94EA01CB010E944A00A5019401C701A7
:10011000B6010E940B016B017C01AC019B0160E008
:1001200070E080E89FE30E940B0120E030E04AE7A6
:1001300054E40E94B3020E94EA0190E080E0861736
:10014000970734F422E02A95F1F700C00196F7CF23
:1001500020E030E0A901C701B6010E94AE021816E6
:100160003CF2FF90EF90DF90CF90BF90AF909F90C8
:100170008F9008954A9B0BC08FE19EE40197F1F7A1
:1001800000C0000089B182FB882780F9089580E0D3
:100190000895CF93DF93EC018881813071F020F0D6
:1001A000823069F0188206C00E94BA00882311F0DC
:1001B00081E08883DF91CF91089582E0FACF0E9499
:1001C000BA008111F7CFEECFFC018081813021F49C
:1001D00088EB9BE00C945A000895CF93DF931F9215
:1001E000CDB7DEB719828FEF81B984B987B98BEFAC
:1001F0008AB9CE0101960E94C900CE0101960E94E3
:10020000E4002FEF80E792E0215080409040E1F73A
:1002100000C00000EECF5058BB27AA270E94230140
:100220000C9474020E94660238F00E946D0220F065
:1002300039F49F3F19F426F40C9463020EF4E09510
:10024000E7FB0C945D02E92F0E94850258F3BA1770
:10025000620773078407950720F079F4A6F50C94DC
:10026000A7020EF4E0950B2EBA2FA02D0B01B901B9
:1002700090010C01CA01A0011124FF27591B99F01C
:10028000593F50F4503E68F11A16F040A22F232F28
:10029000342F4427585FF3CF469537952795A79578
:1002A000F0405395C9F77EF41F16BA0B620B730B1F
:1002B000840BBAF09150A1F0FF0FBB1F661F771F90
:1002C000881FC2F70EC0BA0F621F731F841F48F445
:1002D000879577956795B795F7959E3F08F0B0CFCE
:1002E0009395880F08F09927EE0F979587950895B5
:1002F0000E948C010C9474020E946D0258F00E94BE
:10030000660240F029F45F3F29F00C945D02511120
:100310000C94A8020C9463020E94850268F399234E
:10032000B1F3552391F3951B550BBB27AA276217F1
:100330007307840738F09F5F5F4F220F331F441FFE
:10034000AA1FA9F335D00E2E3AF0E0E832D0915032
:100350005040E695001CCAF72BD0FE2F29D0660F1F
:10036000771F881FBB1F261737074807AB07B0E862
:1003700009F0BB0B802DBF01FF2793585F4F3AF068
:100380009E3F510578F00C945D020C94A8025F3FEB
:10039000E4F3983ED4F3869577956795B795F795EE
:1003A0009F5FC9F7880F911D9695879597F90895D6
:1003B000E1E0660F771F881FBB1F62177307840772
:1003C000BA0720F0621B730B840BBA0BEE1F88F781
:1003D000E09508950E94F1016894B1110C94A8026F
:1003E00008950E948D0288F09F5798F0B92F9927A1
:1003F000B751B0F0E1F0660F771F881F991F1AF010
:10040000BA95C9F714C0B13091F00E94A702B1E0CB
:1004100008950C94A702672F782F8827B85F39F0CA
:10042000B93FCCF3869577956795B395D9F73EF4A8
:1004300090958095709561957F4F8F4F9F4F089550
:10044000E89409C097FB3EF490958095709561956E
:100450007F4F8F4F9F4F9923A9F0F92F96E9BB2724
:100460009395F695879577956795B795F111F8CFA0
:10047000FAF4BB0F11F460FF1BC06F5F7F4F8F4F0B
:100480009F4F16C0882311F096E911C0772321F001
:100490009EE8872F762F05C0662371F096E8862F99
:1004A00070E060E02AF09A95660F771F881FDAF7F0
:1004B000880F9695879597F9089597F99F6780E833
:1004C00070E060E008959FEF80EC089500240A94A6
:1004D0001616170618060906089500240A9412161F
:1004E0001306140605060895092E0394000C11F452
:1004F000882352F0BB0F40F4BF2B11F460FF04C0FF
:100500006F5F7F4F8F4F9F4F089557FD9058440F57
:10051000551F59F05F3F71F04795880F97FB991F62
:1005200061F09F3F79F0879508951216130614061F
:10053000551FF2CF4695F1DF08C0161617061806AC
:10054000991FF1CF86957105610508940895E89487
:10055000BB2766277727CB0197F908950E942003D0
:1005600008F48FEF08950E94C6020C9474020E9452
:10057000660238F00E946D0220F0952311F00C9471
:100580005D020C94630211240C94A8020E9485025F
:1005900070F3959FC1F3950F50E0551F629FF001D6
:1005A000729FBB27F00DB11D639FAA27F00DB11DEF
:1005B000AA1F649F6627B00DA11D661F829F222778
:1005C000B00DA11D621F739FB00DA11D621F839FFF
:1005D000A00D611D221F749F3327A00D611D231FD5
:1005E000849F600D211D822F762F6A2F11249F5723
:1005F00050409AF0F1F088234AF0EE0FFF1FBB1F26
:10060000661F771F881F91505040A9F79E3F5105E4
:1006100080F00C945D020C94A8025F3FE4F3983ED6
:10062000D4F3869577956795B795F795E7959F5F8E
:10063000C1F7FE2B880F911D9695879597F9089520
:10064000990F0008550FAA0BE0E8FEEF16161706E3
:10065000E807F907C0F012161306E407F50798F04B
:10066000621B730B840B950B39F40A2661F0232B64
:10067000242B252B21F408950A2609F4A140A695E0
:0C0680008FEF811D811D0895F894FFCFBD
:00000001FF
